{
  "contractName": "TodoList",
  "abi": [
    {
      "constant": true,
      "inputs": [],
      "name": "taskCount",
      "outputs": [
        {
          "name": "",
          "type": "uint256"
        }
      ],
      "payable": false,
      "stateMutability": "view",
      "type": "function",
      "signature": "0xb6cb58a5"
    }
  ],
  "bytecode": "0x608060405260008055348015601357600080fd5b50609e806100226000396000f3fe608060405260043610603f576000357c0100000000000000000000000000000000000000000000000000000000900463ffffffff168063b6cb58a5146044575b600080fd5b348015604f57600080fd5b506056606c565b6040518082815260200191505060405180910390f35b6000548156fea165627a7a7230582092fe2e3efc31b7b682528e36a4130b403060093653d3b319d672746a866b086a0029",
  "source": "// SPDX-License-Identifier: Unidentified\r\npragma solidity >=0.4.22 <0.9.0;\r\n\r\ncontract TodoList\r\n{\r\n    uint public taskCount = 0;//state variable that is actually written to the blockchain\r\n\r\n}\r\n",
  "sourcePath": "C:/Users/Anthony/Desktop/eth-to-do/contracts/TodoList.sol",
  "compiler": {
    "name": "solc",
    "version": "0.5.0+commit.1d4f565a.Emscripten.clang"
  },
  "schemaVersion": "3.0.1",
  "updatedAt": "2022-08-21T13:00:20.195Z",
  "devdoc": {
    "methods": {}
  },
  "userdoc": {
    "methods": {}
  }
}